:020000020000FC
:1000000010C01895189518954AC018951895189508
:100010001895189518951895189518951895189578
:1000200018950FE50DBF02E00EBF479A00E805BF27
:1000300001E009BF0DE101BF01E000BF0CE003BF1B
:10004000E4E0F0E828E3208348D02EE0208345D088
:1000500021E0208342D026E020833FD0E5E0F0E895
:1000600036B3307962E0789432D0A130E9F351E6CA
:10007000152F46B340794317A1F0303091F4403149
:10008000E1F0403899F0603061F462E020EC2083C8
:10009000512F512F252F208320D0342F02C0A1E0D3
:1000A000189506B30072002379F4DECF13956A9594
:1000B000113608F0D9CF1AE708951A956A951A37BC
:1000C00008F0D2CF11E6089521E007D0CDCF80E02F
:1000D00094E20BD00197E9F708958DE590E005D003
:1000E0000197E9F7089589E090E0000075EC0000C1
:0600F0007A95E9F708957E
:00000001FF
